{
  "_format": "hh-sol-artifact-1",
  "contractName": "StakeRewardToken",
  "sourceName": "contracts/StakeRewardToken.sol",
  "abi": [
    {
      "inputs": [],
      "stateMutability": "nonpayable",
      "type": "constructor"
    },
    {
      "anonymous": false,
      "inputs": [
        {
          "indexed": true,
          "internalType": "address",
          "name": "owner",
          "type": "address"
        },
        {
          "indexed": true,
          "internalType": "address",
          "name": "spender",
          "type": "address"
        },
        {
          "indexed": false,
          "internalType": "uint256",
          "name": "value",
          "type": "uint256"
        }
      ],
      "name": "Approval",
      "type": "event"
    },
    {
      "anonymous": false,
      "inputs": [
        {
          "indexed": true,
          "internalType": "address",
          "name": "previousOwner",
          "type": "address"
        },
        {
          "indexed": true,
          "internalType": "address",
          "name": "newOwner",
          "type": "address"
        }
      ],
      "name": "OwnershipTransferred",
      "type": "event"
    },
    {
      "anonymous": false,
      "inputs": [
        {
          "indexed": true,
          "internalType": "address",
          "name": "from",
          "type": "address"
        },
        {
          "indexed": true,
          "internalType": "address",
          "name": "to",
          "type": "address"
        },
        {
          "indexed": false,
          "internalType": "uint256",
          "name": "value",
          "type": "uint256"
        }
      ],
      "name": "Transfer",
      "type": "event"
    },
    {
      "inputs": [
        {
          "internalType": "address",
          "name": "owner",
          "type": "address"
        },
        {
          "internalType": "address",
          "name": "spender",
          "type": "address"
        }
      ],
      "name": "allowance",
      "outputs": [
        {
          "internalType": "uint256",
          "name": "",
          "type": "uint256"
        }
      ],
      "stateMutability": "view",
      "type": "function"
    },
    {
      "inputs": [
        {
          "internalType": "address",
          "name": "spender",
          "type": "address"
        },
        {
          "internalType": "uint256",
          "name": "amount",
          "type": "uint256"
        }
      ],
      "name": "approve",
      "outputs": [
        {
          "internalType": "bool",
          "name": "",
          "type": "bool"
        }
      ],
      "stateMutability": "nonpayable",
      "type": "function"
    },
    {
      "inputs": [
        {
          "internalType": "address",
          "name": "account",
          "type": "address"
        }
      ],
      "name": "balanceOf",
      "outputs": [
        {
          "internalType": "uint256",
          "name": "",
          "type": "uint256"
        }
      ],
      "stateMutability": "view",
      "type": "function"
    },
    {
      "inputs": [],
      "name": "buyToken",
      "outputs": [
        {
          "internalType": "uint256",
          "name": "",
          "type": "uint256"
        }
      ],
      "stateMutability": "payable",
      "type": "function"
    },
    {
      "inputs": [],
      "name": "decimals",
      "outputs": [
        {
          "internalType": "uint8",
          "name": "",
          "type": "uint8"
        }
      ],
      "stateMutability": "view",
      "type": "function"
    },
    {
      "inputs": [
        {
          "internalType": "address",
          "name": "spender",
          "type": "address"
        },
        {
          "internalType": "uint256",
          "name": "subtractedValue",
          "type": "uint256"
        }
      ],
      "name": "decreaseAllowance",
      "outputs": [
        {
          "internalType": "bool",
          "name": "",
          "type": "bool"
        }
      ],
      "stateMutability": "nonpayable",
      "type": "function"
    },
    {
      "inputs": [],
      "name": "getTokenBuyPrice",
      "outputs": [
        {
          "internalType": "uint256",
          "name": "",
          "type": "uint256"
        }
      ],
      "stateMutability": "view",
      "type": "function"
    },
    {
      "inputs": [
        {
          "internalType": "address",
          "name": "spender",
          "type": "address"
        },
        {
          "internalType": "uint256",
          "name": "addedValue",
          "type": "uint256"
        }
      ],
      "name": "increaseAllowance",
      "outputs": [
        {
          "internalType": "bool",
          "name": "",
          "type": "bool"
        }
      ],
      "stateMutability": "nonpayable",
      "type": "function"
    },
    {
      "inputs": [
        {
          "internalType": "uint256",
          "name": "_newBuyPrice",
          "type": "uint256"
        }
      ],
      "name": "modifyTokenBuyPrice",
      "outputs": [],
      "stateMutability": "nonpayable",
      "type": "function"
    },
    {
      "inputs": [],
      "name": "name",
      "outputs": [
        {
          "internalType": "string",
          "name": "",
          "type": "string"
        }
      ],
      "stateMutability": "view",
      "type": "function"
    },
    {
      "inputs": [],
      "name": "owner",
      "outputs": [
        {
          "internalType": "address",
          "name": "",
          "type": "address"
        }
      ],
      "stateMutability": "view",
      "type": "function"
    },
    {
      "inputs": [],
      "name": "renounceOwnership",
      "outputs": [],
      "stateMutability": "nonpayable",
      "type": "function"
    },
    {
      "inputs": [],
      "name": "symbol",
      "outputs": [
        {
          "internalType": "string",
          "name": "",
          "type": "string"
        }
      ],
      "stateMutability": "view",
      "type": "function"
    },
    {
      "inputs": [],
      "name": "totalSupply",
      "outputs": [
        {
          "internalType": "uint256",
          "name": "",
          "type": "uint256"
        }
      ],
      "stateMutability": "view",
      "type": "function"
    },
    {
      "inputs": [
        {
          "internalType": "address",
          "name": "to",
          "type": "address"
        },
        {
          "internalType": "uint256",
          "name": "amount",
          "type": "uint256"
        }
      ],
      "name": "transfer",
      "outputs": [
        {
          "internalType": "bool",
          "name": "",
          "type": "bool"
        }
      ],
      "stateMutability": "nonpayable",
      "type": "function"
    },
    {
      "inputs": [
        {
          "internalType": "address",
          "name": "from",
          "type": "address"
        },
        {
          "internalType": "address",
          "name": "to",
          "type": "address"
        },
        {
          "internalType": "uint256",
          "name": "amount",
          "type": "uint256"
        }
      ],
      "name": "transferFrom",
      "outputs": [
        {
          "internalType": "bool",
          "name": "",
          "type": "bool"
        }
      ],
      "stateMutability": "nonpayable",
      "type": "function"
    },
    {
      "inputs": [
        {
          "internalType": "address",
          "name": "newOwner",
          "type": "address"
        }
      ],
      "name": "transferOwnership",
      "outputs": [],
      "stateMutability": "nonpayable",
      "type": "function"
    }
  ],
  "bytecode": "0x60806040526101f46006553480156200001757600080fd5b506040518060400160405280601281526020017f5374616b652052657761726420546f6b656e00000000000000000000000000008152506040518060400160405280600381526020017f535254000000000000000000000000000000000000000000000000000000000081525081600390805190602001906200009c92919062000376565b508060049080519060200190620000b592919062000376565b505050620000d8620000cc6200011c60201b60201c565b6200012460201b60201c565b6200011633620000ed620001ea60201b60201c565b600a620000fb919062000581565b6103e86200010a9190620006be565b620001f360201b60201c565b620007d7565b600033905090565b6000600560009054906101000a900473ffffffffffffffffffffffffffffffffffffffff16905081600560006101000a81548173ffffffffffffffffffffffffffffffffffffffff021916908373ffffffffffffffffffffffffffffffffffffffff1602179055508173ffffffffffffffffffffffffffffffffffffffff168173ffffffffffffffffffffffffffffffffffffffff167f8be0079c531659141344cd1fd0a4f28419497f9722a3daafe3b4186f6b6457e060405160405180910390a35050565b60006012905090565b600073ffffffffffffffffffffffffffffffffffffffff168273ffffffffffffffffffffffffffffffffffffffff16141562000266576040517f08c379a00000000000000000000000000000000000000000000000000000000081526004016200025d9062000479565b60405180910390fd5b6200027a600083836200036c60201b60201c565b80600260008282546200028e9190620004c9565b92505081905550806000808473ffffffffffffffffffffffffffffffffffffffff1673ffffffffffffffffffffffffffffffffffffffff1681526020019081526020016000206000828254620002e59190620004c9565b925050819055508173ffffffffffffffffffffffffffffffffffffffff16600073ffffffffffffffffffffffffffffffffffffffff167fddf252ad1be2c89b69c2b068fc378daa952ba7f163c4a11628f55a4df523b3ef836040516200034c91906200049b565b60405180910390a362000368600083836200037160201b60201c565b5050565b505050565b505050565b828054620003849062000736565b90600052602060002090601f016020900481019282620003a85760008555620003f4565b82601f10620003c357805160ff1916838001178555620003f4565b82800160010185558215620003f4579182015b82811115620003f3578251825591602001919060010190620003d6565b5b50905062000403919062000407565b5090565b5b808211156200042257600081600090555060010162000408565b5090565b600062000435601f83620004b8565b91507f45524332303a206d696e7420746f20746865207a65726f2061646472657373006000830152602082019050919050565b62000473816200071f565b82525050565b60006020820190508181036000830152620004948162000426565b9050919050565b6000602082019050620004b2600083018462000468565b92915050565b600082825260208201905092915050565b6000620004d6826200071f565b9150620004e3836200071f565b9250827fffffffffffffffffffffffffffffffffffffffffffffffffffffffffffffffff038211156200051b576200051a6200076c565b5b828201905092915050565b6000808291508390505b6001851115620005785780860481111562000550576200054f6200076c565b5b6001851615620005605780820291505b80810290506200057085620007ca565b945062000530565b94509492505050565b60006200058e826200071f565b91506200059b8362000729565b9250620005ca7fffffffffffffffffffffffffffffffffffffffffffffffffffffffffffffffff8484620005d2565b905092915050565b600082620005e45760019050620006b7565b81620005f45760009050620006b7565b81600181146200060d576002811462000618576200064e565b6001915050620006b7565b60ff8411156200062d576200062c6200076c565b5b8360020a9150848211156200064757620006466200076c565b5b50620006b7565b5060208310610133831016604e8410600b8410161715620006885782820a9050838111156200068257620006816200076c565b5b620006b7565b62000697848484600162000526565b92509050818404811115620006b157620006b06200076c565b5b81810290505b9392505050565b6000620006cb826200071f565b9150620006d8836200071f565b9250817fffffffffffffffffffffffffffffffffffffffffffffffffffffffffffffffff04831182151516156200071457620007136200076c565b5b828202905092915050565b6000819050919050565b600060ff82169050919050565b600060028204905060018216806200074f57607f821691505b602082108114156200076657620007656200079b565b5b50919050565b7f4e487b7100000000000000000000000000000000000000000000000000000000600052601160045260246000fd5b7f4e487b7100000000000000000000000000000000000000000000000000000000600052602260045260246000fd5b60008160011c9050919050565b611bc080620007e76000396000f3fe6080604052600436106100fe5760003560e01c8063834dc98411610095578063a457c2d711610064578063a457c2d714610339578063a482171914610376578063a9059cbb14610394578063dd62ed3e146103d1578063f2fde38b1461040e576100fe565b8063834dc9841461028f57806388550b6a146102b85780638da5cb5b146102e357806395d89b411461030e576100fe565b8063313ce567116100d1578063313ce567146101d357806339509351146101fe57806370a082311461023b578063715018a614610278576100fe565b806306fdde0314610103578063095ea7b31461012e57806318160ddd1461016b57806323b872dd14610196575b600080fd5b34801561010f57600080fd5b50610118610437565b60405161012591906117af565b60405180910390f35b34801561013a57600080fd5b50610155600480360381019061015091906112d5565b6104c9565b6040516101629190611794565b60405180910390f35b34801561017757600080fd5b506101806104ec565b60405161018d9190611931565b60405180910390f35b3480156101a257600080fd5b506101bd60048036038101906101b89190611286565b6104f6565b6040516101ca9190611794565b60405180910390f35b3480156101df57600080fd5b506101e8610525565b6040516101f5919061194c565b60405180910390f35b34801561020a57600080fd5b50610225600480360381019061022091906112d5565b61052e565b6040516102329190611794565b60405180910390f35b34801561024757600080fd5b50610262600480360381019061025d9190611221565b6105d8565b60405161026f9190611931565b60405180910390f35b34801561028457600080fd5b5061028d610620565b005b34801561029b57600080fd5b506102b660048036038101906102b19190611311565b6106a8565b005b3480156102c457600080fd5b506102cd61072e565b6040516102da9190611931565b60405180910390f35b3480156102ef57600080fd5b506102f8610738565b6040516103059190611779565b60405180910390f35b34801561031a57600080fd5b50610323610762565b60405161033091906117af565b60405180910390f35b34801561034557600080fd5b50610360600480360381019061035b91906112d5565b6107f4565b60405161036d9190611794565b60405180910390f35b61037e6108de565b60405161038b9190611931565b60405180910390f35b3480156103a057600080fd5b506103bb60048036038101906103b691906112d5565b610945565b6040516103c89190611794565b60405180910390f35b3480156103dd57600080fd5b506103f860048036038101906103f3919061124a565b610968565b6040516104059190611931565b60405180910390f35b34801561041a57600080fd5b5061043560048036038101906104309190611221565b6109ef565b005b60606003805461044690611abb565b80601f016020809104026020016040519081016040528092919081815260200182805461047290611abb565b80156104bf5780601f10610494576101008083540402835291602001916104bf565b820191906000526020600020905b8154815290600101906020018083116104a257829003601f168201915b5050505050905090565b6000806104d4610ae7565b90506104e1818585610aef565b600191505092915050565b6000600254905090565b600080610501610ae7565b905061050e858285610cba565b610519858585610d46565b60019150509392505050565b60006012905090565b600080610539610ae7565b90506105cd818585600160008673ffffffffffffffffffffffffffffffffffffffff1673ffffffffffffffffffffffffffffffffffffffff16815260200190815260200160002060008973ffffffffffffffffffffffffffffffffffffffff1673ffffffffffffffffffffffffffffffffffffffff168152602001908152602001600020546105c89190611983565b610aef565b600191505092915050565b60008060008373ffffffffffffffffffffffffffffffffffffffff1673ffffffffffffffffffffffffffffffffffffffff168152602001908152602001600020549050919050565b610628610ae7565b73ffffffffffffffffffffffffffffffffffffffff16610646610738565b73ffffffffffffffffffffffffffffffffffffffff161461069c576040517f08c379a000000000000000000000000000000000000000000000000000000000815260040161069390611891565b60405180910390fd5b6106a66000610fc7565b565b6106b0610ae7565b73ffffffffffffffffffffffffffffffffffffffff166106ce610738565b73ffffffffffffffffffffffffffffffffffffffff1614610724576040517f08c379a000000000000000000000000000000000000000000000000000000000815260040161071b90611891565b60405180910390fd5b8060068190555050565b6000600654905090565b6000600560009054906101000a900473ffffffffffffffffffffffffffffffffffffffff16905090565b60606004805461077190611abb565b80601f016020809104026020016040519081016040528092919081815260200182805461079d90611abb565b80156107ea5780601f106107bf576101008083540402835291602001916107ea565b820191906000526020600020905b8154815290600101906020018083116107cd57829003601f168201915b5050505050905090565b6000806107ff610ae7565b90506000600160008373ffffffffffffffffffffffffffffffffffffffff1673ffffffffffffffffffffffffffffffffffffffff16815260200190815260200160002060008673ffffffffffffffffffffffffffffffffffffffff1673ffffffffffffffffffffffffffffffffffffffff168152602001908152602001600020549050838110156108c5576040517f08c379a00000000000000000000000000000000000000000000000000000000081526004016108bc906118f1565b60405180910390fd5b6108d28286868403610aef565b60019250505092915050565b6000803411610922576040517f08c379a000000000000000000000000000000000000000000000000000000000815260040161091990611871565b60405180910390fd5b60006006543461093291906119d9565b905061093e338261108d565b8091505090565b600080610950610ae7565b905061095d818585610d46565b600191505092915050565b6000600160008473ffffffffffffffffffffffffffffffffffffffff1673ffffffffffffffffffffffffffffffffffffffff16815260200190815260200160002060008373ffffffffffffffffffffffffffffffffffffffff1673ffffffffffffffffffffffffffffffffffffffff16815260200190815260200160002054905092915050565b6109f7610ae7565b73ffffffffffffffffffffffffffffffffffffffff16610a15610738565b73ffffffffffffffffffffffffffffffffffffffff1614610a6b576040517f08c379a0000000000000000000000000000000000000000000000000000000008152600401610a6290611891565b60405180910390fd5b600073ffffffffffffffffffffffffffffffffffffffff168173ffffffffffffffffffffffffffffffffffffffff161415610adb576040517f08c379a0000000000000000000000000000000000000000000000000000000008152600401610ad2906117f1565b60405180910390fd5b610ae481610fc7565b50565b600033905090565b600073ffffffffffffffffffffffffffffffffffffffff168373ffffffffffffffffffffffffffffffffffffffff161415610b5f576040517f08c379a0000000000000000000000000000000000000000000000000000000008152600401610b56906118d1565b60405180910390fd5b600073ffffffffffffffffffffffffffffffffffffffff168273ffffffffffffffffffffffffffffffffffffffff161415610bcf576040517f08c379a0000000000000000000000000000000000000000000000000000000008152600401610bc690611811565b60405180910390fd5b80600160008573ffffffffffffffffffffffffffffffffffffffff1673ffffffffffffffffffffffffffffffffffffffff16815260200190815260200160002060008473ffffffffffffffffffffffffffffffffffffffff1673ffffffffffffffffffffffffffffffffffffffff168152602001908152602001600020819055508173ffffffffffffffffffffffffffffffffffffffff168373ffffffffffffffffffffffffffffffffffffffff167f8c5be1e5ebec7d5bd14f71427d1e84f3dd0314c0f7b2291e5b200ac8c7c3b92583604051610cad9190611931565b60405180910390a3505050565b6000610cc68484610968565b90507fffffffffffffffffffffffffffffffffffffffffffffffffffffffffffffffff8114610d405781811015610d32576040517f08c379a0000000000000000000000000000000000000000000000000000000008152600401610d2990611831565b60405180910390fd5b610d3f8484848403610aef565b5b50505050565b600073ffffffffffffffffffffffffffffffffffffffff168373ffffffffffffffffffffffffffffffffffffffff161415610db6576040517f08c379a0000000000000000000000000000000000000000000000000000000008152600401610dad906118b1565b60405180910390fd5b600073ffffffffffffffffffffffffffffffffffffffff168273ffffffffffffffffffffffffffffffffffffffff161415610e26576040517f08c379a0000000000000000000000000000000000000000000000000000000008152600401610e1d906117d1565b60405180910390fd5b610e318383836111ed565b60008060008573ffffffffffffffffffffffffffffffffffffffff1673ffffffffffffffffffffffffffffffffffffffff16815260200190815260200160002054905081811015610eb7576040517f08c379a0000000000000000000000000000000000000000000000000000000008152600401610eae90611851565b60405180910390fd5b8181036000808673ffffffffffffffffffffffffffffffffffffffff1673ffffffffffffffffffffffffffffffffffffffff16815260200190815260200160002081905550816000808573ffffffffffffffffffffffffffffffffffffffff1673ffffffffffffffffffffffffffffffffffffffff1681526020019081526020016000206000828254610f4a9190611983565b925050819055508273ffffffffffffffffffffffffffffffffffffffff168473ffffffffffffffffffffffffffffffffffffffff167fddf252ad1be2c89b69c2b068fc378daa952ba7f163c4a11628f55a4df523b3ef84604051610fae9190611931565b60405180910390a3610fc18484846111f2565b50505050565b6000600560009054906101000a900473ffffffffffffffffffffffffffffffffffffffff16905081600560006101000a81548173ffffffffffffffffffffffffffffffffffffffff021916908373ffffffffffffffffffffffffffffffffffffffff1602179055508173ffffffffffffffffffffffffffffffffffffffff168173ffffffffffffffffffffffffffffffffffffffff167f8be0079c531659141344cd1fd0a4f28419497f9722a3daafe3b4186f6b6457e060405160405180910390a35050565b600073ffffffffffffffffffffffffffffffffffffffff168273ffffffffffffffffffffffffffffffffffffffff1614156110fd576040517f08c379a00000000000000000000000000000000000000000000000000000000081526004016110f490611911565b60405180910390fd5b611109600083836111ed565b806002600082825461111b9190611983565b92505081905550806000808473ffffffffffffffffffffffffffffffffffffffff1673ffffffffffffffffffffffffffffffffffffffff16815260200190815260200160002060008282546111709190611983565b925050819055508173ffffffffffffffffffffffffffffffffffffffff16600073ffffffffffffffffffffffffffffffffffffffff167fddf252ad1be2c89b69c2b068fc378daa952ba7f163c4a11628f55a4df523b3ef836040516111d59190611931565b60405180910390a36111e9600083836111f2565b5050565b505050565b505050565b60008135905061120681611b5c565b92915050565b60008135905061121b81611b73565b92915050565b60006020828403121561123357600080fd5b6000611241848285016111f7565b91505092915050565b6000806040838503121561125d57600080fd5b600061126b858286016111f7565b925050602061127c858286016111f7565b9150509250929050565b60008060006060848603121561129b57600080fd5b60006112a9868287016111f7565b93505060206112ba868287016111f7565b92505060406112cb8682870161120c565b9150509250925092565b600080604083850312156112e857600080fd5b60006112f6858286016111f7565b92505060206113078582860161120c565b9150509250929050565b60006020828403121561132357600080fd5b60006113318482850161120c565b91505092915050565b61134381611a33565b82525050565b61135281611a45565b82525050565b600061136382611967565b61136d8185611972565b935061137d818560208601611a88565b61138681611b4b565b840191505092915050565b600061139e602383611972565b91507f45524332303a207472616e7366657220746f20746865207a65726f206164647260008301527f65737300000000000000000000000000000000000000000000000000000000006020830152604082019050919050565b6000611404602683611972565b91507f4f776e61626c653a206e6577206f776e657220697320746865207a65726f206160008301527f64647265737300000000000000000000000000000000000000000000000000006020830152604082019050919050565b600061146a602283611972565b91507f45524332303a20617070726f766520746f20746865207a65726f20616464726560008301527f73730000000000000000000000000000000000000000000000000000000000006020830152604082019050919050565b60006114d0601d83611972565b91507f45524332303a20696e73756666696369656e7420616c6c6f77616e63650000006000830152602082019050919050565b6000611510602683611972565b91507f45524332303a207472616e7366657220616d6f756e742065786365656473206260008301527f616c616e636500000000000000000000000000000000000000000000000000006020830152604082019050919050565b6000611576601083611972565b91507f457468657273206e6565646564212121000000000000000000000000000000006000830152602082019050919050565b60006115b6602083611972565b91507f4f776e61626c653a2063616c6c6572206973206e6f7420746865206f776e65726000830152602082019050919050565b60006115f6602583611972565b91507f45524332303a207472616e736665722066726f6d20746865207a65726f20616460008301527f64726573730000000000000000000000000000000000000000000000000000006020830152604082019050919050565b600061165c602483611972565b91507f45524332303a20617070726f76652066726f6d20746865207a65726f2061646460008301527f72657373000000000000000000000000000000000000000000000000000000006020830152604082019050919050565b60006116c2602583611972565b91507f45524332303a2064656372656173656420616c6c6f77616e63652062656c6f7760008301527f207a65726f0000000000000000000000000000000000000000000000000000006020830152604082019050919050565b6000611728601f83611972565b91507f45524332303a206d696e7420746f20746865207a65726f2061646472657373006000830152602082019050919050565b61176481611a71565b82525050565b61177381611a7b565b82525050565b600060208201905061178e600083018461133a565b92915050565b60006020820190506117a96000830184611349565b92915050565b600060208201905081810360008301526117c98184611358565b905092915050565b600060208201905081810360008301526117ea81611391565b9050919050565b6000602082019050818103600083015261180a816113f7565b9050919050565b6000602082019050818103600083015261182a8161145d565b9050919050565b6000602082019050818103600083015261184a816114c3565b9050919050565b6000602082019050818103600083015261186a81611503565b9050919050565b6000602082019050818103600083015261188a81611569565b9050919050565b600060208201905081810360008301526118aa816115a9565b9050919050565b600060208201905081810360008301526118ca816115e9565b9050919050565b600060208201905081810360008301526118ea8161164f565b9050919050565b6000602082019050818103600083015261190a816116b5565b9050919050565b6000602082019050818103600083015261192a8161171b565b9050919050565b6000602082019050611946600083018461175b565b92915050565b6000602082019050611961600083018461176a565b92915050565b600081519050919050565b600082825260208201905092915050565b600061198e82611a71565b915061199983611a71565b9250827fffffffffffffffffffffffffffffffffffffffffffffffffffffffffffffffff038211156119ce576119cd611aed565b5b828201905092915050565b60006119e482611a71565b91506119ef83611a71565b9250817fffffffffffffffffffffffffffffffffffffffffffffffffffffffffffffffff0483118215151615611a2857611a27611aed565b5b828202905092915050565b6000611a3e82611a51565b9050919050565b60008115159050919050565b600073ffffffffffffffffffffffffffffffffffffffff82169050919050565b6000819050919050565b600060ff82169050919050565b60005b83811015611aa6578082015181840152602081019050611a8b565b83811115611ab5576000848401525b50505050565b60006002820490506001821680611ad357607f821691505b60208210811415611ae757611ae6611b1c565b5b50919050565b7f4e487b7100000000000000000000000000000000000000000000000000000000600052601160045260246000fd5b7f4e487b7100000000000000000000000000000000000000000000000000000000600052602260045260246000fd5b6000601f19601f8301169050919050565b611b6581611a33565b8114611b7057600080fd5b50565b611b7c81611a71565b8114611b8757600080fd5b5056fea26469706673582212205f7fe4c84e2d04395e87eccf116ca1de7e641d25efa008841bdb41ae5a92898664736f6c63430008000033",
  "linkReferences": {},
  "deployedLinkReferences": {}
}