{
  "_format": "hh-sol-artifact-1",
  "contractName": "RewardsSystem",
  "sourceName": "contracts/RewardsSystem.sol",
  "abi": [
    {
      "inputs": [
        {
          "internalType": "address",
          "name": "_allowedTokenAddress",
          "type": "address"
        }
      ],
      "stateMutability": "nonpayable",
      "type": "constructor"
    },
    {
      "inputs": [],
      "name": "claimReward",
      "outputs": [
        {
          "internalType": "uint256",
          "name": "",
          "type": "uint256"
        }
      ],
      "stateMutability": "nonpayable",
      "type": "function"
    },
    {
      "inputs": [],
      "name": "getStakedTokens",
      "outputs": [
        {
          "internalType": "uint256",
          "name": "",
          "type": "uint256"
        }
      ],
      "stateMutability": "view",
      "type": "function"
    },
    {
      "inputs": [
        {
          "internalType": "uint256",
          "name": "_amount",
          "type": "uint256"
        }
      ],
      "name": "stake",
      "outputs": [],
      "stateMutability": "nonpayable",
      "type": "function"
    },
    {
      "inputs": [
        {
          "internalType": "uint256",
          "name": "_amount",
          "type": "uint256"
        }
      ],
      "name": "withdraw",
      "outputs": [],
      "stateMutability": "nonpayable",
      "type": "function"
    }
  ],
  "bytecode": "0x608060405234801561001057600080fd5b50604051610ee3380380610ee38339818101604052810190610032919061008e565b80600160006101000a81548173ffffffffffffffffffffffffffffffffffffffff021916908373ffffffffffffffffffffffffffffffffffffffff16021790555050610100565b600081519050610088816100e9565b92915050565b6000602082840312156100a057600080fd5b60006100ae84828501610079565b91505092915050565b60006100c2826100c9565b9050919050565b600073ffffffffffffffffffffffffffffffffffffffff82169050919050565b6100f2816100b7565b81146100fd57600080fd5b50565b610dd48061010f6000396000f3fe608060405234801561001057600080fd5b506004361061004c5760003560e01c80630e469a7c146100515780632e1a7d4d1461006f578063a694fc3a1461008b578063b88a802f146100a7575b600080fd5b6100596100c5565b6040516100669190610be3565b60405180910390f35b6100896004803603810190610084919061094a565b610192565b005b6100a560048036038101906100a0919061094a565b61044a565b005b6100af610664565b6040516100bc9190610be3565b60405180910390f35b600080600260003373ffffffffffffffffffffffffffffffffffffffff1673ffffffffffffffffffffffffffffffffffffffff16815260200190815260200160002060405180606001604052908160008201548152602001600182015481526020016002820160009054906101000a900460ff16151515158152505090508060400151610187576040517f08c379a000000000000000000000000000000000000000000000000000000000815260040161017e90610b63565b60405180910390fd5b806000015191505090565b600081116101d5576040517f08c379a00000000000000000000000000000000000000000000000000000000081526004016101cc90610b83565b60405180910390fd5b600260003373ffffffffffffffffffffffffffffffffffffffff1673ffffffffffffffffffffffffffffffffffffffff1681526020019081526020016000206000015481111561025a576040517f08c379a000000000000000000000000000000000000000000000000000000000815260040161025190610bc3565b60405180910390fd5b600160009054906101000a900473ffffffffffffffffffffffffffffffffffffffff1673ffffffffffffffffffffffffffffffffffffffff1663a9059cbb33836040518363ffffffff1660e01b81526004016102b7929190610b3a565b602060405180830381600087803b1580156102d157600080fd5b505af11580156102e5573d6000803e3d6000fd5b505050506040513d601f19601f820116820180604052508101906103099190610921565b506000600260003373ffffffffffffffffffffffffffffffffffffffff1673ffffffffffffffffffffffffffffffffffffffff16815260200190815260200160002060405180606001604052908160008201548152602001600182015481526020016002820160009054906101000a900460ff161515151581525050905060405180606001604052808383600001516103a29190610c96565b81526020018260200151815260200160011515815250600260003373ffffffffffffffffffffffffffffffffffffffff1673ffffffffffffffffffffffffffffffffffffffff168152602001908152602001600020600082015181600001556020820151816001015560408201518160020160006101000a81548160ff0219169083151502179055509050508160008082825461043f9190610c96565b925050819055505050565b6000811161048d576040517f08c379a000000000000000000000000000000000000000000000000000000000815260040161048490610b83565b60405180910390fd5b60008190506000600260003373ffffffffffffffffffffffffffffffffffffffff1673ffffffffffffffffffffffffffffffffffffffff1681526020019081526020016000209050600160009054906101000a900473ffffffffffffffffffffffffffffffffffffffff1673ffffffffffffffffffffffffffffffffffffffff166323b872dd3330856040518463ffffffff1660e01b815260040161053493929190610b03565b602060405180830381600087803b15801561054e57600080fd5b505af1158015610562573d6000803e3d6000fd5b505050506040513d601f19601f820116820180604052508101906105869190610921565b5060405180606001604052808260020160009054906101000a900460ff166105ae57846105bf565b8260000154856105be9190610c0f565b5b815260200142815260200160011515815250600260003373ffffffffffffffffffffffffffffffffffffffff1673ffffffffffffffffffffffffffffffffffffffff168152602001908152602001600020600082015181600001556020820151816001015560408201518160020160006101000a81548160ff021916908315150217905550905050826000808282546106589190610c0f565b92505081905550505050565b600080600260003373ffffffffffffffffffffffffffffffffffffffff1673ffffffffffffffffffffffffffffffffffffffff16815260200190815260200160002060405180606001604052908160008201548152602001600182015481526020016002820160009054906101000a900460ff16151515158152505090508060400151610726576040517f08c379a000000000000000000000000000000000000000000000000000000000815260040161071d90610b63565b60405180910390fd5b4262093a80826020015161073a9190610c0f565b1061077a576040517f08c379a000000000000000000000000000000000000000000000000000000000815260040161077190610ba3565b60405180910390fd5b60006064826000015161078d9190610c65565b9050806000808282546107a09190610c0f565b9250508190555060405180606001604052808360000151815260200142815260200160011515815250600260003373ffffffffffffffffffffffffffffffffffffffff1673ffffffffffffffffffffffffffffffffffffffff168152602001908152602001600020600082015181600001556020820151816001015560408201518160020160006101000a81548160ff021916908315150217905550905050600160009054906101000a900473ffffffffffffffffffffffffffffffffffffffff1673ffffffffffffffffffffffffffffffffffffffff1663a9059cbb33836040518363ffffffff1660e01b815260040161089c929190610b3a565b602060405180830381600087803b1580156108b657600080fd5b505af11580156108ca573d6000803e3d6000fd5b505050506040513d601f19601f820116820180604052508101906108ee9190610921565b50809250505090565b60008151905061090681610d70565b92915050565b60008135905061091b81610d87565b92915050565b60006020828403121561093357600080fd5b6000610941848285016108f7565b91505092915050565b60006020828403121561095c57600080fd5b600061096a8482850161090c565b91505092915050565b61097c81610cca565b82525050565b600061098f602383610bfe565b91507f4163636f756e7420686173206e6f74207374616b656420616e7920746f6b656e60008301527f21212100000000000000000000000000000000000000000000000000000000006020830152604082019050919050565b60006109f5602383610bfe565b91507f416d6f756e74206d7573742062652067726561746572207468616e207a65726f60008301527f21212100000000000000000000000000000000000000000000000000000000006020830152604082019050919050565b6000610a5b601c83610bfe565b91507f43616e6e6f742077697468647261772063757272656e746c79212121000000006000830152602082019050919050565b6000610a9b602483610bfe565b91507f5769746864726177616c20616d6f756e7420657863656564732062616c616e6360008301527f65212121000000000000000000000000000000000000000000000000000000006020830152604082019050919050565b610afd81610d08565b82525050565b6000606082019050610b186000830186610973565b610b256020830185610973565b610b326040830184610af4565b949350505050565b6000604082019050610b4f6000830185610973565b610b5c6020830184610af4565b9392505050565b60006020820190508181036000830152610b7c81610982565b9050919050565b60006020820190508181036000830152610b9c816109e8565b9050919050565b60006020820190508181036000830152610bbc81610a4e565b9050919050565b60006020820190508181036000830152610bdc81610a8e565b9050919050565b6000602082019050610bf86000830184610af4565b92915050565b600082825260208201905092915050565b6000610c1a82610d08565b9150610c2583610d08565b9250827fffffffffffffffffffffffffffffffffffffffffffffffffffffffffffffffff03821115610c5a57610c59610d12565b5b828201905092915050565b6000610c7082610d08565b9150610c7b83610d08565b925082610c8b57610c8a610d41565b5b828204905092915050565b6000610ca182610d08565b9150610cac83610d08565b925082821015610cbf57610cbe610d12565b5b828203905092915050565b6000610cd582610ce8565b9050919050565b60008115159050919050565b600073ffffffffffffffffffffffffffffffffffffffff82169050919050565b6000819050919050565b7f4e487b7100000000000000000000000000000000000000000000000000000000600052601160045260246000fd5b7f4e487b7100000000000000000000000000000000000000000000000000000000600052601260045260246000fd5b610d7981610cdc565b8114610d8457600080fd5b50565b610d9081610d08565b8114610d9b57600080fd5b5056fea2646970667358221220246c8742947c17e96561094f7e1221945f1851c1f0e49dee017f275f522d7bfb64736f6c63430008000033",
  "linkReferences": {},
  "deployedLinkReferences": {}
}