{
  "_format": "hh-sol-artifact-1",
  "contractName": "RewardsSystem",
  "sourceName": "contracts/RewardsSystem.sol",
  "abi": [
    {
      "inputs": [
        {
          "internalType": "address",
          "name": "_allowedTokenAddress",
          "type": "address"
        }
      ],
      "stateMutability": "nonpayable",
      "type": "constructor"
    },
    {
      "inputs": [],
      "name": "claimReward",
      "outputs": [
        {
          "internalType": "uint256",
          "name": "",
          "type": "uint256"
        }
      ],
      "stateMutability": "nonpayable",
      "type": "function"
    },
    {
      "inputs": [],
      "name": "getStakedTokens",
      "outputs": [
        {
          "internalType": "uint256",
          "name": "",
          "type": "uint256"
        }
      ],
      "stateMutability": "view",
      "type": "function"
    },
    {
      "inputs": [
        {
          "internalType": "uint256",
          "name": "_amount",
          "type": "uint256"
        }
      ],
      "name": "stake",
      "outputs": [],
      "stateMutability": "nonpayable",
      "type": "function"
    },
    {
      "inputs": [
        {
          "internalType": "uint256",
          "name": "_amount",
          "type": "uint256"
        }
      ],
      "name": "withdraw",
      "outputs": [],
      "stateMutability": "nonpayable",
      "type": "function"
    }
  ],
  "bytecode": "0x608060405234801561001057600080fd5b50604051610f10380380610f108339818101604052810190610032919061008e565b80600160006101000a81548173ffffffffffffffffffffffffffffffffffffffff021916908373ffffffffffffffffffffffffffffffffffffffff16021790555050610100565b600081519050610088816100e9565b92915050565b6000602082840312156100a057600080fd5b60006100ae84828501610079565b91505092915050565b60006100c2826100c9565b9050919050565b600073ffffffffffffffffffffffffffffffffffffffff82169050919050565b6100f2816100b7565b81146100fd57600080fd5b50565b610e018061010f6000396000f3fe608060405234801561001057600080fd5b506004361061004c5760003560e01c80630e469a7c146100515780632e1a7d4d1461006f578063a694fc3a1461008b578063b88a802f146100a7575b600080fd5b6100596100c5565b6040516100669190610c10565b60405180910390f35b61008960048036038101906100849190610977565b610192565b005b6100a560048036038101906100a09190610977565b61044a565b005b6100af610691565b6040516100bc9190610c10565b60405180910390f35b600080600260003373ffffffffffffffffffffffffffffffffffffffff1673ffffffffffffffffffffffffffffffffffffffff16815260200190815260200160002060405180606001604052908160008201548152602001600182015481526020016002820160009054906101000a900460ff16151515158152505090508060400151610187576040517f08c379a000000000000000000000000000000000000000000000000000000000815260040161017e90610b90565b60405180910390fd5b806000015191505090565b600081116101d5576040517f08c379a00000000000000000000000000000000000000000000000000000000081526004016101cc90610bb0565b60405180910390fd5b600260003373ffffffffffffffffffffffffffffffffffffffff1673ffffffffffffffffffffffffffffffffffffffff1681526020019081526020016000206000015481111561025a576040517f08c379a000000000000000000000000000000000000000000000000000000000815260040161025190610bf0565b60405180910390fd5b600160009054906101000a900473ffffffffffffffffffffffffffffffffffffffff1673ffffffffffffffffffffffffffffffffffffffff1663a9059cbb33836040518363ffffffff1660e01b81526004016102b7929190610b67565b602060405180830381600087803b1580156102d157600080fd5b505af11580156102e5573d6000803e3d6000fd5b505050506040513d601f19601f82011682018060405250810190610309919061094e565b506000600260003373ffffffffffffffffffffffffffffffffffffffff1673ffffffffffffffffffffffffffffffffffffffff16815260200190815260200160002060405180606001604052908160008201548152602001600182015481526020016002820160009054906101000a900460ff161515151581525050905060405180606001604052808383600001516103a29190610cc3565b81526020018260200151815260200160011515815250600260003373ffffffffffffffffffffffffffffffffffffffff1673ffffffffffffffffffffffffffffffffffffffff168152602001908152602001600020600082015181600001556020820151816001015560408201518160020160006101000a81548160ff0219169083151502179055509050508160008082825461043f9190610cc3565b925050819055505050565b6000811161048d576040517f08c379a000000000000000000000000000000000000000000000000000000000815260040161048490610bb0565b60405180910390fd5b60008190506000600260003373ffffffffffffffffffffffffffffffffffffffff1673ffffffffffffffffffffffffffffffffffffffff16815260200190815260200160002060405180606001604052908160008201548152602001600182015481526020016002820160009054906101000a900460ff1615151515815250509050600160009054906101000a900473ffffffffffffffffffffffffffffffffffffffff1673ffffffffffffffffffffffffffffffffffffffff166323b872dd3330856040518463ffffffff1660e01b815260040161056e93929190610b30565b602060405180830381600087803b15801561058857600080fd5b505af115801561059c573d6000803e3d6000fd5b505050506040513d601f19601f820116820180604052508101906105c0919061094e565b50604051806060016040528082604001516105db57846105ec565b8260000151856105eb9190610c3c565b5b815260200142815260200160011515815250600260003373ffffffffffffffffffffffffffffffffffffffff1673ffffffffffffffffffffffffffffffffffffffff168152602001908152602001600020600082015181600001556020820151816001015560408201518160020160006101000a81548160ff021916908315150217905550905050826000808282546106859190610c3c565b92505081905550505050565b600080600260003373ffffffffffffffffffffffffffffffffffffffff1673ffffffffffffffffffffffffffffffffffffffff16815260200190815260200160002060405180606001604052908160008201548152602001600182015481526020016002820160009054906101000a900460ff16151515158152505090508060400151610753576040517f08c379a000000000000000000000000000000000000000000000000000000000815260040161074a90610b90565b60405180910390fd5b4262093a8082602001516107679190610c3c565b106107a7576040517f08c379a000000000000000000000000000000000000000000000000000000000815260040161079e90610bd0565b60405180910390fd5b6000606482600001516107ba9190610c92565b9050806000808282546107cd9190610c3c565b9250508190555060405180606001604052808360000151815260200142815260200160011515815250600260003373ffffffffffffffffffffffffffffffffffffffff1673ffffffffffffffffffffffffffffffffffffffff168152602001908152602001600020600082015181600001556020820151816001015560408201518160020160006101000a81548160ff021916908315150217905550905050600160009054906101000a900473ffffffffffffffffffffffffffffffffffffffff1673ffffffffffffffffffffffffffffffffffffffff1663a9059cbb33836040518363ffffffff1660e01b81526004016108c9929190610b67565b602060405180830381600087803b1580156108e357600080fd5b505af11580156108f7573d6000803e3d6000fd5b505050506040513d601f19601f8201168201806040525081019061091b919061094e565b50809250505090565b60008151905061093381610d9d565b92915050565b60008135905061094881610db4565b92915050565b60006020828403121561096057600080fd5b600061096e84828501610924565b91505092915050565b60006020828403121561098957600080fd5b600061099784828501610939565b91505092915050565b6109a981610cf7565b82525050565b60006109bc602383610c2b565b91507f4163636f756e7420686173206e6f74207374616b656420616e7920746f6b656e60008301527f21212100000000000000000000000000000000000000000000000000000000006020830152604082019050919050565b6000610a22602383610c2b565b91507f416d6f756e74206d7573742062652067726561746572207468616e207a65726f60008301527f21212100000000000000000000000000000000000000000000000000000000006020830152604082019050919050565b6000610a88601c83610c2b565b91507f43616e6e6f742077697468647261772063757272656e746c79212121000000006000830152602082019050919050565b6000610ac8602483610c2b565b91507f5769746864726177616c20616d6f756e7420657863656564732062616c616e6360008301527f65212121000000000000000000000000000000000000000000000000000000006020830152604082019050919050565b610b2a81610d35565b82525050565b6000606082019050610b4560008301866109a0565b610b5260208301856109a0565b610b5f6040830184610b21565b949350505050565b6000604082019050610b7c60008301856109a0565b610b896020830184610b21565b9392505050565b60006020820190508181036000830152610ba9816109af565b9050919050565b60006020820190508181036000830152610bc981610a15565b9050919050565b60006020820190508181036000830152610be981610a7b565b9050919050565b60006020820190508181036000830152610c0981610abb565b9050919050565b6000602082019050610c256000830184610b21565b92915050565b600082825260208201905092915050565b6000610c4782610d35565b9150610c5283610d35565b9250827fffffffffffffffffffffffffffffffffffffffffffffffffffffffffffffffff03821115610c8757610c86610d3f565b5b828201905092915050565b6000610c9d82610d35565b9150610ca883610d35565b925082610cb857610cb7610d6e565b5b828204905092915050565b6000610cce82610d35565b9150610cd983610d35565b925082821015610cec57610ceb610d3f565b5b828203905092915050565b6000610d0282610d15565b9050919050565b60008115159050919050565b600073ffffffffffffffffffffffffffffffffffffffff82169050919050565b6000819050919050565b7f4e487b7100000000000000000000000000000000000000000000000000000000600052601160045260246000fd5b7f4e487b7100000000000000000000000000000000000000000000000000000000600052601260045260246000fd5b610da681610d09565b8114610db157600080fd5b50565b610dbd81610d35565b8114610dc857600080fd5b5056fea2646970667358221220ade5bbe7271f0085c80963ac7d3a47b28af48a2f8e228fadec79157aef0f189064736f6c63430008000033",
  "linkReferences": {},
  "deployedLinkReferences": {}
}