{
  "_format": "hh-sol-artifact-1",
  "contractName": "RewardsSystem",
  "sourceName": "contracts/RewardsSystem.sol",
  "abi": [
    {
      "inputs": [
        {
          "internalType": "address",
          "name": "_allowedTokenAddress",
          "type": "address"
        }
      ],
      "stateMutability": "nonpayable",
      "type": "constructor"
    },
    {
      "inputs": [],
      "name": "claimReward",
      "outputs": [
        {
          "internalType": "uint256",
          "name": "",
          "type": "uint256"
        }
      ],
      "stateMutability": "nonpayable",
      "type": "function"
    },
    {
      "inputs": [
        {
          "internalType": "uint256",
          "name": "_amount",
          "type": "uint256"
        }
      ],
      "name": "stake",
      "outputs": [],
      "stateMutability": "nonpayable",
      "type": "function"
    },
    {
      "inputs": [
        {
          "internalType": "uint256",
          "name": "_amount",
          "type": "uint256"
        }
      ],
      "name": "withdraw",
      "outputs": [],
      "stateMutability": "nonpayable",
      "type": "function"
    }
  ],
  "bytecode": "0x608060405234801561001057600080fd5b50604051610e1a380380610e1a8339818101604052810190610032919061008e565b80600160006101000a81548173ffffffffffffffffffffffffffffffffffffffff021916908373ffffffffffffffffffffffffffffffffffffffff16021790555050610100565b600081519050610088816100e9565b92915050565b6000602082840312156100a057600080fd5b60006100ae84828501610079565b91505092915050565b60006100c2826100c9565b9050919050565b600073ffffffffffffffffffffffffffffffffffffffff82169050919050565b6100f2816100b7565b81146100fd57600080fd5b50565b610d0b8061010f6000396000f3fe608060405234801561001057600080fd5b50600436106100415760003560e01c80632e1a7d4d14610046578063a694fc3a14610062578063b88a802f1461007e575b600080fd5b610060600480360381019061005b9190610881565b61009c565b005b61007c60048036038101906100779190610881565b610354565b005b61008661059b565b6040516100939190610b1a565b60405180910390f35b600081116100df576040517f08c379a00000000000000000000000000000000000000000000000000000000081526004016100d690610aba565b60405180910390fd5b600260003373ffffffffffffffffffffffffffffffffffffffff1673ffffffffffffffffffffffffffffffffffffffff16815260200190815260200160002060000154811115610164576040517f08c379a000000000000000000000000000000000000000000000000000000000815260040161015b90610afa565b60405180910390fd5b600160009054906101000a900473ffffffffffffffffffffffffffffffffffffffff1673ffffffffffffffffffffffffffffffffffffffff1663a9059cbb33836040518363ffffffff1660e01b81526004016101c1929190610a71565b602060405180830381600087803b1580156101db57600080fd5b505af11580156101ef573d6000803e3d6000fd5b505050506040513d601f19601f820116820180604052508101906102139190610858565b506000600260003373ffffffffffffffffffffffffffffffffffffffff1673ffffffffffffffffffffffffffffffffffffffff16815260200190815260200160002060405180606001604052908160008201548152602001600182015481526020016002820160009054906101000a900460ff161515151581525050905060405180606001604052808383600001516102ac9190610bcd565b81526020018260200151815260200160011515815250600260003373ffffffffffffffffffffffffffffffffffffffff1673ffffffffffffffffffffffffffffffffffffffff168152602001908152602001600020600082015181600001556020820151816001015560408201518160020160006101000a81548160ff021916908315150217905550905050816000808282546103499190610bcd565b925050819055505050565b60008111610397576040517f08c379a000000000000000000000000000000000000000000000000000000000815260040161038e90610aba565b60405180910390fd5b60008190506000600260003373ffffffffffffffffffffffffffffffffffffffff1673ffffffffffffffffffffffffffffffffffffffff16815260200190815260200160002060405180606001604052908160008201548152602001600182015481526020016002820160009054906101000a900460ff1615151515815250509050600160009054906101000a900473ffffffffffffffffffffffffffffffffffffffff1673ffffffffffffffffffffffffffffffffffffffff166323b872dd3330856040518463ffffffff1660e01b815260040161047893929190610a3a565b602060405180830381600087803b15801561049257600080fd5b505af11580156104a6573d6000803e3d6000fd5b505050506040513d601f19601f820116820180604052508101906104ca9190610858565b50604051806060016040528082604001516104e557846104f6565b8260000151856104f59190610b46565b5b815260200142815260200160011515815250600260003373ffffffffffffffffffffffffffffffffffffffff1673ffffffffffffffffffffffffffffffffffffffff168152602001908152602001600020600082015181600001556020820151816001015560408201518160020160006101000a81548160ff0219169083151502179055509050508260008082825461058f9190610b46565b92505081905550505050565b600080600260003373ffffffffffffffffffffffffffffffffffffffff1673ffffffffffffffffffffffffffffffffffffffff16815260200190815260200160002060405180606001604052908160008201548152602001600182015481526020016002820160009054906101000a900460ff1615151515815250509050806040015161065d576040517f08c379a000000000000000000000000000000000000000000000000000000000815260040161065490610a9a565b60405180910390fd5b4262093a8082602001516106719190610b46565b106106b1576040517f08c379a00000000000000000000000000000000000000000000000000000000081526004016106a890610ada565b60405180910390fd5b6000606482600001516106c49190610b9c565b9050806000808282546106d79190610b46565b9250508190555060405180606001604052808360000151815260200142815260200160011515815250600260003373ffffffffffffffffffffffffffffffffffffffff1673ffffffffffffffffffffffffffffffffffffffff168152602001908152602001600020600082015181600001556020820151816001015560408201518160020160006101000a81548160ff021916908315150217905550905050600160009054906101000a900473ffffffffffffffffffffffffffffffffffffffff1673ffffffffffffffffffffffffffffffffffffffff1663a9059cbb33836040518363ffffffff1660e01b81526004016107d3929190610a71565b602060405180830381600087803b1580156107ed57600080fd5b505af1158015610801573d6000803e3d6000fd5b505050506040513d601f19601f820116820180604052508101906108259190610858565b50809250505090565b60008151905061083d81610ca7565b92915050565b60008135905061085281610cbe565b92915050565b60006020828403121561086a57600080fd5b60006108788482850161082e565b91505092915050565b60006020828403121561089357600080fd5b60006108a184828501610843565b91505092915050565b6108b381610c01565b82525050565b60006108c6602383610b35565b91507f4163636f756e7420686173206e6f74207374616b656420616e7920746f6b656e60008301527f21212100000000000000000000000000000000000000000000000000000000006020830152604082019050919050565b600061092c602383610b35565b91507f416d6f756e74206d7573742062652067726561746572207468616e207a65726f60008301527f21212100000000000000000000000000000000000000000000000000000000006020830152604082019050919050565b6000610992601c83610b35565b91507f43616e6e6f742077697468647261772063757272656e746c79212121000000006000830152602082019050919050565b60006109d2602483610b35565b91507f5769746864726177616c20616d6f756e7420657863656564732062616c616e6360008301527f65212121000000000000000000000000000000000000000000000000000000006020830152604082019050919050565b610a3481610c3f565b82525050565b6000606082019050610a4f60008301866108aa565b610a5c60208301856108aa565b610a696040830184610a2b565b949350505050565b6000604082019050610a8660008301856108aa565b610a936020830184610a2b565b9392505050565b60006020820190508181036000830152610ab3816108b9565b9050919050565b60006020820190508181036000830152610ad38161091f565b9050919050565b60006020820190508181036000830152610af381610985565b9050919050565b60006020820190508181036000830152610b13816109c5565b9050919050565b6000602082019050610b2f6000830184610a2b565b92915050565b600082825260208201905092915050565b6000610b5182610c3f565b9150610b5c83610c3f565b9250827fffffffffffffffffffffffffffffffffffffffffffffffffffffffffffffffff03821115610b9157610b90610c49565b5b828201905092915050565b6000610ba782610c3f565b9150610bb283610c3f565b925082610bc257610bc1610c78565b5b828204905092915050565b6000610bd882610c3f565b9150610be383610c3f565b925082821015610bf657610bf5610c49565b5b828203905092915050565b6000610c0c82610c1f565b9050919050565b60008115159050919050565b600073ffffffffffffffffffffffffffffffffffffffff82169050919050565b6000819050919050565b7f4e487b7100000000000000000000000000000000000000000000000000000000600052601160045260246000fd5b7f4e487b7100000000000000000000000000000000000000000000000000000000600052601260045260246000fd5b610cb081610c13565b8114610cbb57600080fd5b50565b610cc781610c3f565b8114610cd257600080fd5b5056fea2646970667358221220b026871fd6b530c204ba4330f7a1257b247dc2ab9af85a189909f118265e71f764736f6c63430008000033",
  "linkReferences": {},
  "deployedLinkReferences": {}
}